:0200000480007A
:100000006F00402E6F00801D6F00C02C6F00802C91
:100010006F00402C6F00002C6F00C02B6F00802BF6
:100020006F00402B6F00002B6F00C02A6F00802AEA
:100030006F00402A6F00002A6F00C0296F008029DE
:100040006F0040296F0000296F00C0286F008028D2
:100050006F0040286F0000286F00C0276F008027C6
:100060006F0040276F0000276F00C0266F008026BA
:100070006F0040266F0000266F00C0256F00C0365D
:10008000972102009381C17B17010300130181F7BF
:1000900017050000130505F713651500731055309B
:1000A0001385C1C717360200130686F93306A6402A
:1000B00093050000EF40404A1745000013054544F2
:1000C000EF30D020EF40C039130500009305000049
:1000D00013060000EF00C0006F3090206780000022
:1000E000130101D993078100130710009306010142
:1000F0001306800193058001130500242326112691
:10010000232481262322912623202127232E3125D3
:10011000232C4125EF20D05CF32920B0F32400B03C
:10012000930671001306C1009305810013050101B8
:10013000EF00507213040500732A20B0732900B039
:10014000832581001705010013050503EF30906238
:100150008325C1001705010013050503EF309061E9
:10016000930504001705010013050503EF309060A7
:10017000834571001705010013050503EF30905FFB
:1001800033063A41970501009385050317050100E1
:1001900013050503EF30105E330699409705010003
:1001A000938585011705010013054503EF30905C29
:1001B0008320C12603248126832441260329012686
:1001C0008329C125032A8125130500001301012776
:1001D0006780000013050000678000001305000021
:1001E0006780000013050000678000001305000011
:1001F0006780000013050000678000001305000001
:1002000067800000130500006780000013050000F0
:1002100067800000130500006780000013050000E0
:1002200067800000130500006780000013050000D0
:1002300067800000130500006780000013050000C0
:1002400067800000130500006780000013050000B0
:1002500067800000130500006780000013050000A0
:100260006780000013050000678000001305000090
:100270006780000013050000678000001305000080
:100280006780000013050000678000001305000070
:100290006780000013050000678000001305000060
:1002A0006780000013050000678000001305000050
:1002B0006780000013050000678000001305000040
:1002C0006780000013050000678000001305000030
:1002D0006780000017050100130515CDEF30505B56
:1002E0006FF05FFF130101FC232011002322A10006
:1002F0002324B1002326C1002328D100232AE100B2
:10030000232CF100232E010123201103232251026B
:1003100023246102232671022328C103232AD10347
:10032000232CE103232EF103F322203413032000B6
:10033000638862021303B000638862001303300015
:10034000638862006F00C002EF0000346F0040035A
:1003500017050100130505C1EF3090536F004002EF
:1003600017050100130505BBEF3090526F004001E7
:1003700017050100130525C1EF3090516F004002B1
:10038000F322103403830200130530003373A300FB
:100390006314A3009382220093822200739012348C
:1003A0008320010003254100832581000326C1002D
:1003B0008326010103274101832781010328C1010D
:1003C0008328010283224102032381028323C10285
:1003D000032E0103832E4103032F8103832FC103C7
:1003E0001301010473002030730020303305A04056
:1003F00023A4A1C81305F0FF6780000017070100C0
:100400001307C7BC93075005B70600101307170062
:1004100023A0F60083470700E39A07FE67800000E9
:100420009307800523A4F1C81305F0FF678000003F
:100430009307800523A4F1C81305F0FF678000002F
:100440009307800523A4F1C81305F0FF678000001F
:100450009307800523A4F1C81305F0FF678000000F
:100460009307800523A4F1C81305F0FF67800000FF
:100470001305F0FF678000009307C00023A4F1C8B4
:100480001305F0FF67800000B707048023A0A700D2
:10049000730050106F0000009307800523A4F1C87B
:1004A0001305F0FF678000009307B00023A4F1C894
:1004B0001305F0FF67800000B727000023A2F500B6
:1004C00013050000678000009307800523A4F1C88E
:1004D0001305F0FF678000009307800523A4F1C88F
:1004E0001305F0FF67800000930780FA23A4F1C88A
:1004F00013050000678000001305100067800000EE
:10050000930780FA23A4F1C81305F0FF6780000069
:100510001305F5FF13351500678000009307600190
:1005200023A4F1C81305F0FF678000009307F001D2
:1005300023A4F1C81305F0FF678000001305000035
:10054000678000009307800523A4F1C81305F0FF1E
:10055000678000001305F0FF6780000093078005A7
:1005600023A4F1C81305F0FF678000001305000005
:1005700067800000B727000023A2F50013050000E4
:10058000678000001305F0FF678000001305F0FF8F
:10059000678000009307200023A4F1C81305F0FF33
:1005A000678000009307800523A4F1C81305F0FFBE
:1005B000678000009307A00023A4F1C81305F0FF93
:1005C00067800000130101FF232021011389C1C7A7
:1005D0008327090023248100232291002326110070
:1005E0009384050013040600638A070213060400BF
:1005F000938504001715020013054554EF0080533E
:100600008320C100130504000324810083244100DA
:10061000032901001301010167800000B7C5010033
:1006200013063000938505201715020013050551A8
:10063000EF000043930710002320F9006FF01FFB29
:1006400023A6A1C613050000678000001387C1C65A
:10065000832707003385A7002320A700637C25009C
:10066000170703001307079A6376E5001385070051
:10067000678000009307C00023A4F1C89307F0FF30
:100680001385070067800000130101FF23229100FA
:1006900023261100930710089384050063C21709ED
:1006A0009307F00263D61703938808FD930710059C
:1006B00063E4170317070100130787939398280033
:1006C000B388E80083A70800B387E70067800700C6
:1006D000930710016380F80A13075005970701007C
:1006E0009387C78EB70600109387170023A0E600F4
:1006F00003C70700E31A07FE8320C10083244100DB
:1007000013010101678000008320C1009307800569
:1007100023A4F1C883244100130101016780000074
:100720009307F040E3CA17FB9307F03F63D6170324
:10073000938808C09307F000E3E017FB1707010058
:100740001307879F93982800B388E80083A70800C1
:10075000B387E700678007009307C00AE38EF8F8C5
:1007600063C6170393079009E388F8F89307900A84
:10077000E394F8F6930780FA23A4F1C86FF0DFF74B
:10078000B727000023A2F4006FF01FF79307600D56
:10079000E394F8F423A6A1C66FF01FF69307F001C7
:1007A00023A4F1C86FF05FF59307200023A4F1C8DC
:1007B0006FF09FF4B707048023A0A70073005010C8
:1007C0006F0000009307600123A4F1C86FF0DFF20F
:1007D000232021011389C1C7832709002324810015
:1007E0001304060063860702130604000324810035
:1007F000032901008320C100938504008324410064
:100800001715020013058533130101016F008032B3
:10081000B7C50100130630009385052017150200A7
:100820001305C531EF00C023930710002320F90002
:100830006FF09FFB8327C50063880720832805018D
:10084000638408200328050003469500032745011B
:100850008346480133E6C600A304C50093F60602AA
:100860006382061EB386E840130600011383060068
:100870006374D60013030001638AE81C3386E70023
:10088000034E060093051700130610002300C8014D
:10089000232AB5006370D61A3386B700834E06004C
:1008A00013062700130E20002300D801232AC500B9
:1008B0006372DE183386C700834E060013063700C6
:1008C000130E30002300D801232AC5006374DE16FE
:1008D0003386C700834E060013064700130E400000
:1008E0002300D801232AC5006376DE143386C700AF
:1008F000834E060013065700130E50002300D80144
:10090000232AC5006378DE123386C700834E0600B3
:1009100013066700130E60002300D801232AC500C8
:10092000637ADE103386C700834E06001306770015
:10093000130E70002300D801232AC500637CDE0E4D
:100940003386C700834E060013068700130E80000F
:100950002300D801232AC500637EDE0C3386C7003E
:10096000834E060013069700130E90002300D80153
:10097000232AC5006370DE0C3386C700834E060051
:100980001306A700130EA0002300D801232AC500D8
:100990006372DE0A3386C700834E06001306B70073
:1009A000130EB0002300D801232AC5006374DE08AB
:1009B0003386C700834E06001306C700130EC0001F
:1009C0002300D801232AC5006376DE063386C700DC
:1009D000834E06001306D700130ED0002300D80163
:1009E000232AC5006378DE043386C700834E0600E1
:1009F0001306E700130EE0002300D801232AC500E8
:100A0000637ADE023386C700834E06001306F700C2
:100A1000130EF0002300D801232AC500637CDE00FA
:100A2000B387C70083C70700130707012300F80037
:100A3000232AE50013070000638406001307F3FF71
:100A40003307B7006384E8006780000083474800ED
:100A50002328050093F7D70F2302F80067800000D2
:100A6000130101FE232A910083240500232C810019
:100A70002328210123263101232E11002382040083
:100A800023840400930770FC2384F400238804006B
:100A90002322B500130405003785D71713890500F5
:100AA0009309060093060000138605001305054010
:100AB00093050000EF209038B70780006374F502BB
:100AC0009357F500130700F82386E40093F7F70F18
:100AD000135575002382F4001375F50F2380A400CD
:100AE000238604002386340123043401A304040074
:100AF00097070000938747D4232224018320C10154
:100B00002328040023260400232A0400232E0400A3
:100B1000232C0400232204022320F4020324810155
:100B200083244101032901018329C100130101022A
:100B300067800000130101FF23260100638A050876
:100B400063080608032505003388C5001307100352
:100B500083474501232601000326C10093F6F70FC2
:100B6000636CC7008327C100938717002326F10019
:100B70008327C100E378F7FE93F70602E38A07FCB8
:100B8000232601008327C100636CF7008327C1007F
:100B9000938717002326F1008327C100E378F7FE2F
:100BA00083C705002300F500232601008327C10029
:100BB000636CF7008327C100938717002326F10099
:100BC0008327C100E378F7FE93851500E39205F9CA
:100BD00013010101678000006384050403C605005A
:100BE0006300060403270500130101FF9386150027
:100BF0008347470193F7F70FA307F1008347F100FD
:100C000093F70702E38607FE2300C70003C606002A
:100C100093861600E31E06FC1301010167800000A5
:100C200067800000630C0602638A05020327050043
:100C300097060000938646C02326B50083474700E9
:100C40002328C500232A05002320D50293E7270087
:100C50002302F700F32740F1638407006780000058
:100C60003727000C97170200938747ED832607006C
:100C70003305F5401335150093071000B397A7000F
:100C8000B3E7D7002320F700678000008327050023
:100C9000034795008326050183C7470133E7E70033
:100CA000A304E50093F7F70F6398060093D7670056
:100CB00013F517006780000013050000678000002F
:100CC0001307050063800506630E0604032805006C
:100CD0008346950083474801B3E6D700A304D500B7
:100CE00093F7170063800704130500006F0080006E
:100CF0006308A60283460800B387A5001305150004
:100D00002380D700032807008346970083474801C4
:100D1000B3E6D700A304D70093F71700E39A07FCC4
:100D2000678000001305000067800000F32740F192
:100D300063960702B726000C17170200130707E097
:100D400003A606003307E54013371700930710008A
:100D5000B397E700B3E7C70023A0F600B707010089
:100D60009387F7FF638CF5000327050093F5F500E3
:100D700083474700B3E7B7002302F700678000000E
:100D8000638E05029307000C63EAC7020327050080
:100D9000232EB5008347870093F7F703B3E7C70017
:100DA00093F7F70F2304F7008347470093E71700F3
:100DB0002302F700F32740F16384070067800000F7
:100DC0003727000C97170200938747D78326070021
:100DD0003305F5401335150093071000B397A700AE
:100DE000B3E7D7002320F700678000006384050283
:100DF000032705002320B50223260500834747006B
:100E00002328050093E727002302F700F32740F18A
:100E100063840700678000003727000C97170200E3
:100E20009387C7D1832607003305F5401335150096
:100E300093071000B397A700B3E7D7002320F7006C
:100E40006780000063800502032705002322B502A6
:100E50008347470093E787002302F700F32740F119
:100E600063840700678000003727000C9717020093
:100E70009387C7CC832607003305F540133515004B
:100E800093071000B397A700B3E7D7002320F7001C
:100E90006780000063880512630606128327050039
:100EA0008346950003C74701B366D700A304D50066
:100EB00013770702630807101307000113050600E4
:100EC0006374C7001305000183C6050013071000F3
:100ED0002380D700637AC70E83C61500130720004E
:100EE0002380D7006372C70E83C625001307300026
:100EF0002380D700637AC70C83C6350013074000F0
:100F00002380D7006372C70C83C6450013075000C7
:100F10002380D700637AC70A83C655001307600091
:100F20002380D7006372C70A83C665001307700069
:100F30002380D700637AC70883C675001307800033
:100F40002380D7006372C70883C68500130790000B
:100F50002380D700637AC70683C695001307A000D5
:100F60002380D7006372C70683C6A5001307B000AD
:100F70002380D700637AC70483C6B5001307C00077
:100F80002380D7006372C70483C6C5001307D0004F
:100F90002380D700637AC70283C6D5001307E00019
:100FA0002380D7006372C70283C6E5001307F000F1
:100FB0002380D700637AC70003C7F5002380E700CA
:100FC000678000001305000067800000832705008C
:100FD0000347950083C74701A304050033E5E700F5
:100FE0001375E509678000008327050003C58701A5
:100FF00067800000032705008347950003474701EA
:10100000B367F700A304F5001375070667800000B7
:10101000032705008347C70093E707042306F7006B
:1010200067800000032705008347C70093F7F70B8D
:101030002306F700678000009306050093870500EC
:101040001307100013068001930580011305002487
:101050006F101069130101FF23248100130406009F
:101060002322910013860600938405009305040053
:1010700023261100EF00000383A7040013050000DE
:1010800063C80700032504003305F5401335150038
:101090008320C10003248100832441001301010146
:1010A00067800000130101FB23268104232491049F
:1010B0002322210523203105232E4103232C510314
:1010C000232A610323287103232681032324910308
:1010D0002322A1032320B103930705002B00000066
:1010E00013050000130B000093030000138A01EEA8
:1010F000138C71EE938D91EE138DA1EE938CB1EE66
:10110000938BC1EE130300089308F00F938A03003A
:10111000232261012324A1002326F1002328B1000A
:10112000232AC1008327C1000327410037F9FFFFAD
:10113000130909793387E70083278100130500002D
:101140009303F062139B470093070B0023202101B8
:10115000138B0A00938A07003368AB00930687015C
:10116000130607039305870493870A00137E37004D
:10117000E3DC531183270100B387FA0063140E00E8
:101180006F105041930E20006314DE016F10D043A6
:10119000B306FA0023800600E3080816930603004E
:1011A0008B06000013C6F6FF1356F641B3F6C600D1
:1011B00093D68640138611EE3306F60063D4D8002A
:1011C0009306F00F2300D600930603008B06000061
:1011D00013C6F6FF1356F641B3F6C60093D6864003
:1011E000138621EE3306F60063D4D8009306F00F81
:1011F0002300D600930603008B06000013C6F6FFFB
:101200001356F641B3F6C60093D68640138631EEE8
:101210003306F60063D4D8009306F00F2300D600FF
:10122000930603008B06000013C6F6FF1356F64123
:10123000B3F6C60093D68640138641EE3306F60019
:1012400063D4D8009306F00F2300D6009306030062
:101250008B06000013C6F6FF1356F641B3F6C60020
:1012600093D68640138651EE3306F60063D4D80039
:101270009306F00F2300D600930603008B060000B0
:1012800013C6F6FF1356F641B3F6C60093D6864052
:10129000138661EE3306F60063D4D8009306F00F90
:1012A0002300D600930603008B06000013C6F6FF4A
:1012B0001356F641B3F6C60093D686403306FC00BB
:1012C00063D4D8009306F00F2300D60093060300E2
:1012D0008B06000013C6F6FF1356F641B3F6C600A0
:1012E00093D68640138681EE3306F60063D4D80089
:1012F0009306F00F2300D600930603008B06000030
:1013000013C6F6FF1356F641B3F6C60093D68640D1
:101310003386FD0063D4D8009306F00F2300D60077
:10132000930603008B06000013C6F6FF1356F64122
:10133000B3F6C60093D686403306FD0063D4D800CA
:101340009306F00F2300D600930603008B060000DF
:1013500013C6F6FF1356F641B3F6C60093D6864081
:101360003386FC0063D4D8009306F00F2300D60028
:10137000930603008B06000013C6F6FF1356F641D2
:10138000B3F6C60093D686403386FB0063D4D800FC
:101390009306F00F2300D600930603008B0600008F
:1013A00013C6F6FF1356F641B3F6C60093D6864031
:1013B0001386D1EE3306F60063D4D8009306F00FFF
:1013C0002300D600930603008B06000013C6F6FF29
:1013D0001356F641B3F6C60093D686401386E1EE67
:1013E0003306F60063D4D8009306F00F2300D6002E
:1013F000930603008B06000013C6F6FF1356F64152
:10140000B3F6C60093D686401386F1EEB307F60016
:1014100063D4D8009306F00F2380D700130515007E
:101420009307B00013072700938A0A01E316F5D249
:1014300083274100930A1B00938707032322F100AF
:10144000832781009387B7002324F100E39CAACC73
:1014500003280101032641012B0C000037FEFFFF8A
:10146000971702009387C70737FBFFFFB7FAFFFF05
:10147000B7F3FFFFB7F2FFFF13050000130E0E795D
:1014800013830700938807001309000017F4000076
:10149000130444EC1307F062130B0B7A930D400115
:1014A000938A0A7D9383037C9382027B9304800159
:1014B000130C05002320C10113155900938B08005C
:1014C000930C00002328F100232A2101232C110171
:1014D000232E010193050600336D9C0163160D4216
:1014E000130F000817E60100130686809307050016
:1014F000130840009308900113090F002322810173
:10150000232471012326A1006F00C0118329050047
:10151000832B4500032C8500832CC50003AE0600F9
:1015200083AE460003AF860083AFC6005B302FCE8C
:10153000938607016354D700B3866701B306DA00C8
:10154000130506FD83290500832B4500032C850028
:10155000832CC50003AE060083AE460003AF8600B1
:1015600083AFC6005B302FCE938607026354D7004B
:10157000B3865700B306DA00130506FE832905007B
:10158000832B4500032C8500832CC50003AE060089
:1015900083AE460003AF860083AFC6005B302FCE1C
:1015A000938607036354D700B3867700B306DA0047
:1015B000130506FF83290500832B4500032C8500B6
:1015C000832CC50003AE060083AE460003AF860041
:1015D00083AFC6005B302FCE938607046354D700D9
:1015E000B3865701B306DA00E30C98100325060012
:1015F00083294600832B8600032CC60003AE060019
:1016000083AE460003AF860083AFC6005BA0E6C58D
:10161000130D5D009387070B13060605130858008A
:1016200063041D05938607006356F70083260100B7
:10163000B386D700B306DA00130506FCE3180DECF9
:1016400083290500832B4500032C8500832CC500CE
:1016500003AE060083AE460003AF860083AFC6002C
:101660005B392FCE6FF0DFEC9347F9FF93D7F7414B
:10167000B377F90093D787409306F00F032C41000E
:10168000832B81000325C10063D4F6009307F00F7C
:101690002380FB1617F80000130808C613860B00FA
:1016A00097D701009387C779170E0200130E4EB823
:1016B0009308F00F8326080083AE070003AF4700AE
:1016C00083AF870003A9C7008BD6FD9793860701D8
:1016D00083AE060003AF460083AF860003A9C600B1
:1016E0000BD0FD9783AE060103AF460183AF8601A1
:1016F00003A9C6010BD0FD9783AE060203AF4602D5
:1017000083AF860203A9C6020BD0FD9783AE060302
:1017100003AF460383AF860303A9C6030BD0FD972F
:101720009386070583AE060003AF460083AF8600AD
:1017300003A9C6000BD0FD9783AE060103AF460197
:1017400083AF860103A9C6010BD0FD9783AE0602C5
:1017500003AF460283AF860203A9C6020BD0FD97F2
:1017600083AE060303AF460383AF860303A9C60314
:101770000BD0FD979386070983AE060003AF4600A2
:1017800083AF860003A9C6000BD0FD9783AE060188
:1017900003AF460183AF860103A9C6010BD0FD97B5
:1017A00083AE060203AF460283AF860203A9C602D8
:1017B0000BD0FD9783AE060303AF460383AF8603CA
:1017C00003A9C6030BD0FD979386070D83AE0600D1
:1017D00003AF460083AF860003A9C6000BD0FD9778
:1017E00083AE060103AF460183AF860103A9C6019C
:1017F0000BD0FD9783AE060203AF460283AF86028D
:1018000003A9C6020BD0FD9783AE060303AF4603C0
:1018100083AF860303A9C6030BD0FD9793860711F8
:1018200083AE060003AF460083AF860003A9C6005F
:101830000BD0FD9783AE060103AF460183AF86014F
:1018400003A9C6010BD0FD9783AE060203AF460283
:1018500083AF860203A9C6020BD0FD9783AE0603B1
:1018600003AF460383AF860303A9C6030BD0FD97DE
:101870009386071583AE060003AF460083AF86004C
:1018800003A9C6000BD0FD979386071683AE06000A
:1018900003AF460083AF860003A9C6000BD0FD97B7
:1018A0009386071783AE060003AF460083AF86001A
:1018B00003A9C6000BD0FD979386071883AE0600D8
:1018C00003AF460083AF860003A9C6008BD6FD9701
:1018D00093CEF6FF93DEFE41B3F6D60193D6864053
:1018E0009387071963D4D8009306F00FA300D61688
:1018F0001308480013061600E39EC7DB938B8B0189
:1019000013050502930C1000930705006356A7000A
:1019100083270100B307F500B307FA009306000818
:1019200003AE070083AE470003AF870083AFC70055
:10193000DB06000013060000930705009308700102
:10194000930950011309600193860701138807006A
:101950006354D700B3866701B306DA00630E160D31
:1019600003AE060083AE460003AF860083AFC60019
:101970005B000000138E0702B38657006364C70143
:1019800093060E00B306DA006302265B03AE060080
:1019900083AE460003AF860083AFC6005B00000045
:1019A000138E0703B38677006364C70193060E00A6
:1019B000B306DA006302365B03AE060083AE460070
:1019C00003AF860083AFC6005B000000138E0704E0
:1019D000B38657016364C70193060E00B306DA00AD
:1019E0006302B65B03AE060083AE460003AF86001B
:1019F00083AFC6005B0000009387070B6354F706B4
:101A0000130808841306560033080A016302960679
:101A1000032E0800832E4800032F8800832FC80060
:101A20005B0000009386070113880700E344D7F2A8
:101A3000B306DA00E31616F303AE060083AE4600E3
:101A400003AF860083AFC600DB060000138E0702DB
:101A5000B306CA01E37CC7F3B3865700B306DA00C6
:101A60006FF0DFF2130656003308FA00E31296FA1D
:101A7000032E0800832E4800032F8800832FC80000
:101A80005B0800006FF05FEC630408006F104032E9
:101A900063140E006F10C02C130520006312AE06F5
:101AA0001305030017E800001308C8740324080096
:101AB00083244800032988008329C800035E0700A7
:101AC0008352270093920201336E5E0083DE06008C
:101AD00083D2260093920201B3EE5E00035F0600FC
:101AE0008352260093920201336F5F0083DF05006B
:101AF00083D2250093920201B3EF5F005B85929C35
:101B0000B3065A01238006009306030017EE000077
:101B1000130E4E6F03260E0083254E0003258E0004
:101B20000328CE008BC6968213C6F6FF1356F641E5
:101B3000B3F6C60093D68640138611EE3306F60040
:101B400063D4D8009306F00F2300D60017EE0000F0
:101B5000130E4E6C9306030003260E0083254E00E1
:101B600003258E000328CE008BC6968213C6F6FF8F
:101B70001356F641B3F6C60093D68640138621EE7F
:101B80003306F60063D4D8009306F00F2300D60086
:101B900017EE0000130E0E699306030003260E00D5
:101BA00083254E0003258E000328CE008BC6968227
:101BB00013C6F6FF1356F641B3F6C60093D6864019
:101BC000138631EE3306F60063D4D8009306F00F87
:101BD0002300D60017EE0000130ECE659306030017
:101BE00003260E0083254E0003258E000328CE0019
:101BF0008BC6968213C6F6FF1356F641B3F6C6009F
:101C000093D68640138641EE3306F60063D4D8009F
:101C10009306F00F2300D60017EE0000130E8E621D
:101C20009306030003260E0083254E0003258E0035
:101C30000328CE008BC6968213C6F6FF1356F641D4
:101C4000B3F6C60093D68640138651EE3306F600EF
:101C500063D4D8009306F00F2300D60017EE0000DF
:101C6000130E4E5F9306030003260E0083254E00DD
:101C700003258E000328CE008BC6968213C6F6FF7E
:101C80001356F641B3F6C60093D68640138661EE2E
:101C90003306F60063D4D8009306F00F2300D60075
:101CA00017EE0000130E0E5C9306030003260E00D1
:101CB00083254E0003258E000328CE008BC6968216
:101CC00013C6F6FF1356F641B3F6C60093D6864008
:101CD0003306FC0063D4D8009306F00F2300D6002F
:101CE00017EE0000130E0E599306030003260E0094
:101CF00083254E0003258E000328CE008BC69682D6
:101D000013C6F6FF1356F641B3F6C60093D68640C7
:101D1000138681EE3306F60063D4D8009306F00FE5
:101D20002300D60017EE0000130ECE5593060300D5
:101D300003260E0083254E0003258E000328CE00C7
:101D40008BC6968213C6F6FF1356F641B3F6C6004D
:101D500093D686403386FD0063D4D8009306F00FF7
:101D60002300D60017EE0000130ECE529306030098
:101D700003260E0083254E0003258E000328CE0087
:101D80008BC6968213C6F6FF1356F641B3F6C6000D
:101D900093D686403306FD0063D4D8009306F00F37
:101DA0002300D60017EE0000130ECE4F930603005B
:101DB00003260E0083254E0003258E000328CE0047
:101DC0008BC6968213C6F6FF1356F641B3F6C600CD
:101DD00093D686403386FC0063D4D8009306F00F78
:101DE0002300D60017EE0000130ECE4C930603001E
:101DF00003260E0083254E0003258E000328CE0007
:101E00008BC6968213C6F6FF1356F641B3F6C6008C
:101E100093D686403386FB0063D4D8009306F00F38
:101E20002300D60017EE0000130ECE4993060300E0
:101E300003260E0083254E0003258E000328CE00C6
:101E40008BC6968213C6F6FF1356F641B3F6C6004C
:101E500093D686401386D1EE3306F60063D4D800BD
:101E60009306F00F2300D60017EE0000130E8E46E7
:101E70009306030003260E0083254E0003258E00E3
:101E80000328CE008BC6968213C6F6FF1356F64182
:101E9000B3F6C60093D686401386E1EE3306F6000D
:101EA00063D4D8009306F00F2300D60017EE00008D
:101EB000130E4E439306030003260E0083254E00A7
:101EC00003258E000328CE008BC6968213C6F6FF2C
:101ED0001356F641B3F6C60093D686401386F1EE4C
:101EE000B307F60063D4D8009306F00F2380D70021
:101EF00013072700938A0A01130510006FF0CFA57E
:101F0000032506000329460083298600832BC6008B
:101F100003AE060083AE460003AF860083AFC60063
:101F2000DBA6E4BC138906006FF08FEE03AE06005B
:101F300083AE460003AF860083AFC600DB06000019
:101F4000138E0703B306CA01E378C7A7B3867700E9
:101F5000B306DA006FF05FA603AE060083AE46005C
:101F600003AF860083AFC600DB060000138E0704B4
:101F7000B306CA01E378C7A7B3865701B306DA00F0
:101F80006FF05FA603AE060083AE460003AF860087
:101F900083AFC600DB06000093C7F6FF93D7F74177
:101FA000B3F6F60093D786409306F00F63D4F6009D
:101FB0009307F00F2380FB1697E600009386C63345
:101FC00013880B009308F00F83A706008B0700000F
:101FD0000B0000000B0000000B0000000B000000D5
:101FE0000B0000000B0000000B0000000B000000C5
:101FF0000B0000000B0000000B0000000B000000B5
:102000000B0000000B0000000B0000000B000000A4
:102010000B0000000B0000000B0000000B00000094
:102020000B0000000B0000000B0000008B070000FD
:1020300013C6F7FF1356F641B3F7C70093D787408F
:102040009386460063D4F8009307F00FA300F816B8
:1020500013081800E31AD4F6938C1C009307400071
:10206000938B8B01130505026398FCC6032941017C
:1020700083288101130C1C00832701010328C1015F
:10208000138605001309B9009388080663169CC3DC
:1020900013050C00AB0B00001307000897060200A5
:1020A0009386065A97F50000938585B083A80500AE
:1020B00083A2450083A3850003A4C50003AE0600E8
:1020C00083AE460003AF860083AFC6005B17CB41EB
:1020D000170702001307C75797F60000938646AE0E
:1020E00083A5060083A8460083A2860083A3C600BA
:1020F000032E0700832E4700032F8700832FC7007E
:102100005BB0623983A5060183A8460183A28601DC
:1021100083A3C601032E0701832E4701032F8701E6
:10212000832FC7015BB0623983A5060283A84602EC
:1021300083A2860283A3C602032E0702832E4702D0
:10214000032F8702832FC7025BB0623983A5060382
:1021500083A8460383A2860383A3C603032E070333
:10216000832E4703032F8703832FC7035BB0623996
:10217000170702001307C75197F60000938646A879
:1021800083A5060083A8460083A2860083A3C60019
:10219000032E0700832E4700032F8700832FC700DD
:1021A0005BB0623983A5060183A8460183A286013C
:1021B00083A3C601032E0701832E4701032F870146
:1021C000832FC7015BB0623983A5060283A846024C
:1021D00083A2860283A3C602032E0702832E470230
:1021E000032F8702832FC7025BB0623983A50603E2
:1021F00083A8460383A2860383A3C603032E070393
:10220000832E4703032F8703832FC7035BB06239F5
:10221000138701E997F60000938686A283A506003E
:1022200083A8460083A2860083A3C600032E07006E
:10223000832E4700032F8700832FC7005BB06239CE
:1022400083A5060183A8460183A2860183A3C60154
:10225000032E0701832E4701032F8701832FC70118
:102260005BB0623983A5060283A8460283A2860278
:1022700083A3C602032E0702832E4702032F870281
:10228000832FC7025BB0623983A5060383A8460388
:1022900083A2860383A3C603032E0703832E47036B
:1022A000032F8703832FC7035BB06239138701EDC8
:1022B00097F600009386C69C83A5060083A8460077
:1022C00083A2860083A3C600032E0700832E470047
:1022D000032F8700832FC7005BB0623983A50601F7
:1022E00083A8460183A2860183A3C601032E0701AA
:1022F000832E4701032F8701832FC7015BB062390B
:1023000083A5060283A8460283A2860283A3C6028F
:10231000032E0702832E4702032F8702832FC70253
:102320005BB0623983A5060383A8460383A28603B4
:1023300083A3C603032E0703832E4703032F8703BC
:10234000832FC7035BB06239138701F197F6000052
:102350009386069783A5060083A8460083A286007D
:1023600083A3C600032E0700832E4700032F870098
:10237000832FC7005BB0623983A5060183A846019D
:1023800083A2860183A3C601032E0701832E470182
:10239000032F8701832FC7015BB0623983A5060233
:1023A00083A8460283A2860283A3C602032E0702E5
:1023B000832E4702032F8702832FC7025BB0623947
:1023C00083A5060383A8460383A2860383A3C603CB
:1023D000032E0703832E4703032F8703832FC7038F
:1023E0005BB06239138701F597F60000938646913A
:1023F00083A5060083A8460083A2860083A3C600A7
:10240000032E0700832E4700032F8700832FC7006A
:102410005BB06239138701F697F600009386468F0A
:1024200083A5060083A8460083A2860083A3C60076
:10243000032E0700832E4700032F8700832FC7003A
:102440005BB06239138701F797F600009386468DDB
:1024500083A5060083A8460083A2860083A3C60046
:10246000032E0700832E4700032F8700832FC7000A
:102470005BB762399346F7FF93D6F6413377D700BF
:10248000135787409306F00F938501F863D4E60055
:102490001307F00F2380E50017EE0000130ECEEBBC
:1024A0009308100017F700001307878897DF0100D3
:1024B000938F0F80130FF00F83260E00832E0700DB
:1024C00083224700832387000324C7008BD6CB4198
:1024D0009306070183AE060083A2460083A386000D
:1024E00003A4C6000BD0CB4183AE060183A24601F4
:1024F00083A3860103A4C6010BD0CB4183AE0602A1
:1025000083A2460283A3860203A4C6020BD0CB415A
:1025100083AE060383A2460383A3860303A4C603F4
:102520000BD0CB419306070583AE060083A246007D
:1025300083A3860003A4C6000BD0CB4183AE060163
:1025400083A2460183A3860103A4C6010BD0CB411D
:1025500083AE060283A2460283A3860203A4C602B8
:102560000BD0CB4183AE060383A2460383A386032D
:1025700003A4C6030BD0CB419306070983AE060024
:1025800083A2460083A3860003A4C6000BD0CB41E0
:1025900083AE060183A2460183A3860103A4C6017C
:1025A0000BD0CB4183AE060283A2460283A38602F0
:1025B00003A4C6020BD0CB4183AE060383A246031D
:1025C00083A3860303A4C6030BD0CB419306070D58
:1025D00083AE060083A2460083A3860003A4C60040
:1025E0000BD0CB4183AE060183A2460183A38601B3
:1025F00003A4C6010BD0CB4183AE060283A24602E0
:1026000083A3860203A4C6020BD0CB4183AE06038C
:1026100083A2460383A3860303A4C6030BD0CB4146
:102620009306071183AE060083A2460083A38600AB
:1026300003A4C6000BD0CB4183AE060183A24601A2
:1026400083A3860103A4C6010BD0CB4183AE06024F
:1026500083A2460283A3860203A4C6020BD0CB4109
:1026600083AE060383A2460383A3860303A4C603A3
:102670000BD0CB419306071583AE060083A246001C
:1026800083A3860003A4C6000BD0CB419306071694
:1026900083AE060083A2460083A3860003A4C6007F
:1026A0000BD0CB419306071783AE060083A24600EA
:1026B00083A3860003A4C6008BD6CB4193CEF6FF3E
:1026C00093DEFE41B3F6D60193D686401307071872
:1026D000B30E13016354DF009306F00F2380DE2E48
:1026E00093881800130E4E00E318F7DD2B0400004A
:1026F0001307004097E60000938646EB83A8060088
:1027000083A2460083A3860003A4C60003AE05008F
:1027100083AE450003AF850083AFC5005B17CB4197
:10272000138701F997E60000938646E983A5060022
:1027300083A8460083A2860083A3C600032E070059
:10274000832E4700032F8700832FC7005BB06239B9
:10275000138701FA97E60000938646E783A50600F3
:1027600083A8460083A2860083A3C600032E070029
:10277000832E4700032F8700832FC7005BB0623989
:10278000138701FB97E60000938646E583A50600C4
:1027900083A8460083A2860083A3C600032E0700F9
:1027A000832E4700032F8700832FC7005BB0623959
:1027B000138701FC97E60000938646E383A5060095
:1027C00083A8460083A2860083A3C600032E0700C9
:1027D000832E4700032F8700832FC7005BB0623929
:1027E000138701FD97E60000938646E183A5060066
:1027F00083A8460083A2860083A3C600032E070099
:10280000832E4700032F8700832FC7005BB06239F8
:10281000138701FE97E60000938646DF83A5060036
:1028200083A8460083A2860083A3C600032E070068
:10283000832E4700032F8700832FC7005BB06239C8
:10284000138701FF97E60000938646DD83A5060007
:1028500083A8460083A2860083A3C600032E070038
:10286000832E4700032F8700832FC7005BB0623998
:102870001387010097E60000938646DB83A80600D5
:1028800083A2460083A3860003A4C600032E07008C
:10289000832E4700032F8700832FC700DB15CB4112
:1028A00083430337834F1337034F2337130750FFF7
:1028B000834E3337330FEF0293962F001397230085
:1028C000034E433733077700B386F6013307B7006B
:1028D00093961600834853371304D0FE3307D7402E
:1028E000B38E8E029306D0FD3307E7019302F00FFB
:1028F000B305DE02930660FE3307D701B386D80224
:102900003307B7003307D7001357B74063D2E25CF1
:102910001307F00F230BE33697EF0000938FCF26BA
:1029200017E700001307E7D197E30000938303281C
:102930009302F00F6F00C0019306F00FA38BD73600
:10294000938F4F00130767099387170063807F32C7
:102950001374370003AF4F00930E0701130E0705E2
:102960009308070693050707930607086304044ABC
:1029700003540700035A2700131A0A013364440161
:1029800083544700035A6700131A0A01B3E4440151
:1029900003598700035AA700131A0A013369490132
:1029A0008359C700035AE700131A0A01B3E9490122
:1029B0000B8F929C03DF0E0083D92E00939909019F
:1029C000336F3F0103D44E0083D96E009399090100
:1029D0003364340183D48E0083D9AE009399090106
:1029E000B3E4340103D9CE0083D9EE0093990901F1
:1029F000336939010BE05192930E070203DF0E0099
:102A000083D92E0093990901336F3F0103D44E00FF
:102A100083D96E00939909013364340183D48E0005
:102A200083D9AE0093990901B3E4340103D9CE00F0
:102A300083D9EE0093990901336939010BE0519272
:102A4000930E070303DF0E0083D92E00939909012B
:102A5000336F3F0103D44E0083D96E00939909016F
:102A60003364340183D48E0083D9AE009399090175
:102A7000B3E4340103D9CE0083D9EE009399090160
:102A8000336939010BE05192930E070403DF0E0006
:102A900083D92E0093990901336F3F0103D44E006F
:102AA00083D96E00939909013364340183D48E0075
:102AB00083D9AE0093990901B3E4340103D9CE0060
:102AC00083D9EE0093990901336939010BE05192E2
:102AD000835E0E0003592E0013190901B3EE2E0177
:102AE000035F4E0003596E0013190901336F2F0164
:102AF00003548E000359AE001319090133642401F5
:102B00008354CE000359EE0013190901B3E42401E4
:102B10000BD03D4A03DE080083D4280093940401BF
:102B2000336E9E0083DE480083D4680093940401D2
:102B3000B3EE9E0003DF880083D4A80093940401C1
:102B4000336F9F0003D4C80083D4E800939404013A
:102B5000336494000BC0BB4783D8050003D4250021
:102B600013140401B3E8880003DE450003D46500B4
:102B700013140401336E8E0083DE850003D4A50098
:102B800013140401B3EE8E0003DFC50003D4E50087
:102B900013140401336F8F000B1079F783D50600EF
:102BA00003DF2600131F0F01B3E5E50183D84600BC
:102BB00003DF6600131F0F01B3E8E80103DE8600A0
:102BC00003DFA600131F0F01336EEE0183DEC60084
:102BD00003DFE600131F0F01B3EEEE018BB622EF09
:102BE000938506008308070983460337830A17097C
:102BF00003441337B3861603030A2709034F233709
:102C000083093709834E333703094709034E433796
:102C1000830457098348533733045403B386B600FB
:102C2000330F4F03B3868600B3853E03B386E601B8
:102C3000330E2E03B386B600B3859802B386C60161
:102C4000B386B60093D6B64093C5F6FF93D5F5414B
:102C5000E3C4D2CEB3F6B600A38BD736938F4F0022
:102C60001307670993871700E3947FCE83076337C1
:102C7000030773379306100063C6E7001387070046
:102C800093060000830783376344F70A930707001E
:102C90000307933763CAE708138707008307A3373F
:102CA0006346F70093070700138506000307B33751
:102CB00063C4E70A138707008307C337634AF7082B
:102CC000930707000307D33763C0E708138707009C
:102CD0008307E3376346F706930707000307F337D5
:102CE00063CCE704138707002300E6000324C10434
:102CF0002320A8008324810403294104832901049B
:102D0000032AC103832A8103032B4103832B01037D
:102D1000032CC102832C8102032D4102832D010269
:102D20001301010567800000930630006FF01FF764
:102D3000930620006FF0DFF5130590006FF0DFFAC7
:102D4000130580006FF09FF9130570006FF05FF8B6
:102D5000130560006FF01FF7130550006FF0DFF5EB
:102D60001305030017D900001309C94803280900F7
:102D700083224900032489008324C900032E07000D
:102D800083AE0600032F060083AF05005B050B4AE8
:102D90006FE01FD793020300032E070083AE0600E7
:102DA000032F060083AF0500DB0200006FE04FBE7B
:102DB000E3020EFE930E20006308DE01B3065A0103
:102DC000238006006FE08FBD13040300035E07003D
:102DD0008352270093920201336E5E0083DE060069
:102DE00083D2260093920201B3EE5E00035F0600D9
:102DF0008352260093920201336F5F0083DF050048
:102E000083D2250093920201B3EF5F005B040000C0
:102E10006FE00FB8032407008324470003298700CD
:102E20008329C7000B8F929C03AF0E0003A44E00B2
:102E300083A48E0003A9CE000BE0519203AF0E01D4
:102E400003A44E0183A48E0103A9CE010BE051928D
:102E500003AF0E0203A44E0283A48E0203A9CE0286
:102E60000BE0519203AF0E0303A44E0383A48E0321
:102E700003A9CE030BE05192832E0E00032F4E00C8
:102E800003248E008324CE000BD03D4A03AE0800FD
:102E900083AE480003AF880003A4C8000BC0BB4743
:102EA00083A8050003AE450083AE850003AFC500CF
:102EB0000B1079F783A5060083A8460003AE8600B1
:102EC00083AEC6008BB622EF938506006FF09FD1CC
:102ED0009346F7FF93D6F6413377D7006FF09FA361
:102EE000130101FD23229102938401C803A304006E
:102EF000232E3101232C4101232A51012328610172
:102F00002326110223248102232021039308230076
:102F100013081025130B0500938A0500130A0600F9
:102F200093890600636C181D17F80100130888C305
:102F300033086800034908000344180023A0140163
:102F400013080005631A09011304B4FC1374F40F89
:102F50009306100063FA860217E501001305052F9A
:102F6000032481028320C102832441020329010238
:102F70008329C101032A8101832A4101032B010115
:102F8000130101036F10C01003A60400930610255F
:102F90001306B60063E0C61A23A0C400930680019E
:102FA0006316DA0A63944A0B83A6040013061025FD
:102FB0003304DB00636A860E6386090297F501001D
:102FC000938545BA13060B00B385D5001385090018
:102FD0002326F1002324E100EF10C0658327C10000
:102FE0000327810023A0840083A604001316270072
:102FF000930510253304D60063E68506638C07002D
:1030000097F50100938505B6B385D50013850700B4
:10301000EF10406223A0840003A70400930710254B
:10302000631CF7028320C10203248102832441022E
:10303000032901028329C101032A8101832A410155
:10304000032B0101130101036780000017E5010054
:10305000130545216FF0DFF017E501001305452D3D
:103060006FF01FF0930610251306040097E501008A
:103070009385052E17E501001305851B2324E10028
:10308000EF00506F032781009307F0FFE306F7F886
:10309000130607009305F0FF17E50100130505244B
:1030A000EF00506D6FF05FF79306102513060400D4
:1030B00097E501009385C52917E50100130545171C
:1030C0002326F1002324E100EF00D06A9306F0FFED
:1030D000032781008327C100E308DBF013060B0000
:1030E0009305F0FF17E501001305851AEF009068BE
:1030F0008327C100032781006FF01FEF930610257F
:103100001386080097E501009385852417E50100E3
:10311000130505122326F1002324E100EF0090653A
:103120008327C10003278100130900001304000056
:103130006FF01FE19306102597E501009385452167
:1031400017E501001305C50E2326F1002324E10035
:10315000EF0050628327C100032781006FF01FE456
:103160001308000063C6051263DC0600B337C00015
:10317000B306D0401348F8FFB386F6403306C0408C
:10318000930806001307050013830500639A060ED3
:1031900063F4C516B70701006364F622B7070001A0
:1031A000930680016374F60093060001B71702804E
:1031B000335ED60093870736B387C70183C70700FE
:1031C000130E0002B387D700B306FE40630CFE0067
:1031D0003393D500B357F500B318D60033E3670037
:1031E0003317D50013D608013355C302939608014F
:1031F00093D60601935707013373C302B385A60222
:1032000013130301B3E7670063FCB700B387F8004B
:103210001303F5FF63E4170163E6B74013050300EA
:10322000B387B740B3D5C702131707011357070178
:10323000B3F7C702B386B602939707013367F70067
:10324000637ED7003387E8009387F5FF6366170135
:103250009385E5FF6364D700938507001315050187
:103260003365B50093050000630A0800B337A0007A
:10327000B305B040B385F5403305A040678000003A
:1032800063F4D50293050000130500006FF0DFFD25
:10329000B337A000B305B040B385F5403305A04077
:1032A0001308F0FF6FF05FECB707010063E8F61E4C
:1032B000B70700019308800163F4F600930800014A
:1032C000B717028033D7160193870736B387E70015
:1032D00003C707009307000233071701B388E740CD
:1032E0006396E71C63E4B6303335C500133515002B
:1032F000930500006FF05FF7630C060CB707010041
:10330000637CF62C133306101333130013133300AE
:10331000B3566600B717028093870736B387D70086
:1033200083C6070093070002B3866600B38ED740BA
:103330006394D70CB386C5401353060113160601D8
:10334000135606019305100033D566029357070103
:10335000B3F66602330EC50293960601B3E7D700B3
:1033600063FCC701B387F8009306F5FF63E4170118
:1033700063E4C72B13850600B387C741B3D6670242
:103380001317070113570701B3F767023386C60205
:10339000939707013367F700637EC7003387E80020
:1033A0009387F6FF636617019386E6FF6364C700A1
:1033B00093860700131505013365D5006FF0DFEA2A
:1033C0009336061093B61600939636006FF01FDE04
:1033D000B71702809306000093870736B387D7009C
:1033E00083C607001303000093070002B38666003C
:1033F000B38ED740E380D7F4B318D60133DED500BF
:1034000013D30801B3576E02139608011356060131
:10341000B356D5003317D501B395D501B3E6B60041
:1034200093D50601337E6E023305F602131E0E019C
:10343000B3E5C50163FEA500B385B800138EF7FFA1
:1034400063E4151D63F2A51C9387E7FFB38515019F
:10345000B385A54033D565029396060193D6060140
:10346000B3F56502330EA60293950501B3E6B600E7
:1034700063FEC601B386D8009305F5FF63EE161709
:1034800063FCC6171305E5FFB38616019395070184
:10349000B386C641B3E5A5006FF01FEB93B80610E5
:1034A00093B81800939838006FF09FE1B35EE60080
:1034B000B3961601B3EEDE0033D3E50013DF0E0141
:1034C000B357E303139E0E01B3951501135E0E016E
:1034D0003357E5003367B7009356070133161601DB
:1034E0003373E303B305FE0213130301B3E666006F
:1034F00063FEB600B386DE001383F7FF63EAD611DE
:1035000063F8B6109387E7FFB386D601B386B6405B
:10351000B3D5E6031317070113570701B3F6E60304
:103520003303BE02939606013367D700637E6700BC
:103530003387EE009386F5FF6364D70D6372670CE3
:103540009385E5FF3307D70193970701370F0100F4
:10355000B3E7B7009306FFFFB3F5D70013DE07010B
:10356000B376D60013560601B38ED50233076740F3
:10357000B306DE0213D30E01B385C502B385D500B1
:10358000B305B300330ECE0263F4D500330EEE0163
:1035900093D60501B386C601636AD7026308D700D4
:1035A00013850700930500006FF01FCCB7060100DC
:1035B0009386F6FF33F7D50013170701B3FEDE003D
:1035C000331515013307D701E37CE5FC1385F7FFBD
:1035D000930500006FF05FC9B7070001637AF60436
:1035E00093560601130300016FF0DFD2930500002C
:1035F000130510006FF05FC7138505006FF01FE91A
:10360000938506006FF05FF493070E006FF05FE4A0
:10361000930703006FF09FEF1305E5FFB3871701D2
:103620006FF09FD51305E5FFB38717016FF05FBFFC
:1036300093568601130380016FF0DFCD1308060057
:1036400093080500138705006390060E63FEC512FC
:10365000B7070100636EF61EB707000193068001ED
:103660006374F60093060001B71702803353D60047
:1036700093870736B387670083C7070013030002E9
:10368000B387D700B306F340630CF3003397D5003C
:10369000B357F5003318D60033E7E700B318D50069
:1036A000135608013355C7029316080193D6060135
:1036B00093D708013377C702B385A6021317070112
:1036C000B3E7E70063FCB700B307F8001307F5FFA3
:1036D00063E4070163E0B73E13050700B387B74013
:1036E00033D7C7029398080193D80801B3F7C702EC
:1036F000B386E60293970701B3E8F80063FED800AB
:10370000B30818019307F7FF63E608011307E7FF03
:1037100063E4D80013870700131505013365E5003E
:10372000930500006780000063F8D5009305000052
:103730001305000067800000B707010063E8F61E6C
:10374000B70700011308800163F4F60013080001B5
:10375000B717028033D7060193870736B387E70090
:1037600003C7070093070002330707013388E740C8
:103770006396E71C63E4B6303335C5001335150096
:103780009305000067800000630C060CB70701007A
:10379000637CF62C13370610133717001317370006
:1037A000B356E600B717028093870736B387D70072
:1037B00083C7070093060002B387E700B38EF64085
:1037C0006394F60CB387C5409356060113160601A1
:1037D000135606019305100033D5D70213D70801FD
:1037E000B3F7D7023303C50293970701B367F70016
:1037F00063FC6700B307F8001307F5FF63E40701F4
:1038000063E4672A13050700B387674033D7D702FD
:103810009398080193D80801B3F7D7023306C7027B
:1038200093970701B3E8F80063FEC800B3081801D6
:103830009307F7FF63E608011307E7FF63E4C80097
:1038400013870700131505013365E5006780000045
:103850009336061093B61600939636006FF0DFE0AD
:10386000B71702809306000093870736B387D70007
:1038700083C707001307000093060002B387E70021
:10388000B38EF640E380F6F43318D60133D3F50057
:1038900093560801335ED30213160801B395D50180
:1038A00013560601B357F500B3E7B70013D7070166
:1038B000B318D5013373D302B305C6031313030141
:1038C00033676700637EB7003307E8001305FEFF28
:1038D0006364071D6372B71C130EEEFF3307070105
:1038E0003307B7403355D7029397070193D70701A2
:1038F0003377D7023303A60213170701B3E7E700B4
:1039000063FE6700B307F8001307F5FF63EE0717C0
:1039100063FC67161305E5FFB387070193150E01D6
:10392000B3876740B3E5A5006FF01FEB13B806102F
:1039300013381800131838006FF09FE1335EE6006B
:10394000B3960601336EDE00B3D8E500935E0E0138
:10395000B3D7D80313130E01B39505011353030115
:103960003357E5003367B700935607013316060156
:10397000B3F8D803B305F30293980801B3E6160130
:1039800063FEB600B306DE009388F7FF63EAC61154
:1039900063F8B6109387E7FFB386C601B386B640D7
:1039A000B3D5D6031317070113570701B3F6D60390
:1039B000B308B302939606013367D700637E1701FD
:1039C0003307EE009386F5FF6364C70D6372170D2E
:1039D0009385E5FF3307C70193970701B70E0100F1
:1039E000B3E7B7009386FEFFB3F5D70013D3070103
:1039F000B376D60013560601338ED502330717412E
:103A0000B306D30293580E01B385C502B385D50022
:103A1000B385B8003303C30263F4D5003303D30185
:103A200093D60501B3866600636AD7026308D700A0
:103A3000138507009305000067800000B7060100AA
:103A40009386F6FF33F7D50013170701337EDE00A8
:103A5000331505013307C701E37CE5FC1385F7FF48
:103A60009305000067800000B7070001637AF60441
:103A700093560601130700016FF0DFD29305000093
:103A80001305100067800000130507006FF01FE9A1
:103A9000938506006FF05FF4130E05006FF05FE48E
:103AA000938708006FF09FEF1305E5FFB3870701C9
:103AB0006FF09FD51305E5FFB38707016FF01FC2B5
:103AC00093568601130780016FF0DFCD9305050043
:103AD0009306000013060000130500006F009058C5
:103AE000130101FF93050000232481002326110008
:103AF00013040500EF00906083A741C863840700AA
:103B0000E780070013050400EFC01F9813050000AD
:103B10006780000037260280B78500803725028045
:103B2000130646DB93850571130505DC6F004035F0
:103B3000130101FF832545002324810023229100E6
:103B4000232611001384015193040500638485002A
:103B5000EF40103C83A58400930784066386F5003C
:103B600013850400EF40D03A83A5C4001304040D6C
:103B7000638E8500032481008320C1001385040027
:103B800083244100130101016F4090388320C1005C
:103B90000324810083244100130101016780000098
:103BA0001305000067800000130101FE232C810033
:103BB000B747008013840151938747B1232E11002A
:103BC000232A9100232821012326310123244101A6
:103BD00023A2F1C81306800093074000930500005C
:103BE0001305C4052326F400232004002322040027
:103BF000232404002322040623280400232A04008B
:103C0000232C0400EF005015B7070100374A00804D
:103C1000B749008037490080B7440080130ACA09B9
:103C200093890910130989189384042093879700B6
:103C300013068000930500001305440C2320440361
:103C4000232234032324240323269402232AF40664
:103C5000232E840023240406232604062328040696
:103C60002326040C232C0406232E040623200408F8
:103C7000EF00900EB7070200130784069387270111
:103C80001305C41213068000930500002324440981
:103C90002326340923282409232A9408232EF40CEC
:103CA0002322E4082328040C232A040C232C040CCC
:103CB000232A04122320040E2322040E2324040E9C
:103CC000EF0090099307040D2328440F232A340F93
:103CD000232C240F232E940E8320C1012326F40EBF
:103CE0000324810183244101032901018329C100A7
:103CF000032A8100130101026780000083A741C8E5
:103D0000130101FE23263101232E1100232C8100F3
:103D1000232A910023282101930905006388070EB7
:103D200037290280130949DB9304F0FF83274900F8
:103D3000032489009387F7FF63D807006F0000080A
:103D400013048406638C97060317C4009387F7FF58
:103D5000E31807FEB707FFFF938717002326F40039
:103D60002322040623200400232404002322040029
:103D700023280400232A0400232C040013068000B7
:103D8000930500001305C405EF00007D23280402FD
:103D9000232A040223220404232404048320C101CF
:103DA0001305040003248101832441010329010137
:103DB0008329C10013010102678000000324090068
:103DC00063060400130904006FF05FF69305C01A40
:103DD00013850900EF10000A13040500630C0502A7
:103DE0001305C50093074000232004002322F4009C
:103DF0002324A4001306001A93050000EF00C075E9
:103E000023208900130904006FF05FF2EFF0DFD97F
:103E10006FF01FF1232009009307C00023A0F900D1
:103E20006FF0DFF783274503638407006780000096
:103E300003A741C8B7470080938707B3232AF50239
:103E4000E31607FE6FF05FD6678000006780000012
:103E500037260280B7450080130646DB9385C5B040
:103E6000130500006F00C00137260280B7450080AF
:103E7000130646DB938505BA130500006F0040006A
:103E8000130101FD23202103232E3101232C4101A5
:103E9000232A5101232861012326710123261102BF
:103EA0002324810223229102130B0500938B05002A
:103EB000930A0600130A0000930910001309F0FF8B
:103EC00083A44A0003A48A009384F4FF63C8040215
:103ED0008357C40063FEF9008317E40093050400D0
:103EE00013050B0063862701E7800B00336AAA00E5
:103EF0009384F4FF13048406E39C24FD83AA0A0040
:103F0000E3900AFC8320C10203248102832441023E
:103F1000032901028329C101832A4101032B0101E5
:103F2000832BC10013050A00032A81011301010339
:103F300067800000130101FC2324C1022326D10263
:103F40002328E102232AF102232C0103232E11034B
:103F5000138605008325850093068102232E110018
:103F60002326D100EF10006D8320C101130101044D
:103F70006780000003A301C7130101FC2324C102D1
:103F80002326D1022322B1022328E102232AF102AF
:103F9000232C0103232E1103832583009306410262
:103FA0001306050013050300232E11002326D1005C
:103FB000EF1040688320C1011301010467800000F5
:103FC000130101FC232C8102130405001385050055
:103FD000232A9102232E110293840500EF00C07F53
:103FE000B71702809387472D2324F102930710000F
:103FF0002326F102032744039307010293061500C9
:10400000232AF10093072000232091022322A102FA
:10401000232ED100232CF1008325840063000706A2
:104020008397C500139727016342070203A745063C
:10403000B7E6FFFF9386F6FF37260000B3E7C70019
:104040003377D7002396F50023A2E5061306410136
:1040500013050400EF4010308320C10303248103C3
:10406000133515003305A0401375B50083244103B3
:104070001305F5FF13010104678000001305040018
:104080002326B100EFF01FDA8325C1006FF05FF93E
:104090009305050003A501C76FF09FF2130101FF0F
:1040A00023248100138405008395E5002326110055
:1040B000EF00002E63400502832704058320C10022
:1040C000B387A7002328F40403248100130101010E
:1040D000678000008357C40037F7FFFF1307F7FF1F
:1040E000B3F7E7008320C1002316F4000324810006
:1040F00013010101678000001305000067800000C4
:104100008397C500130101FE232C8100232A91000F
:104110002328210123263101232E110013F7071034
:104120001384050093040500130906009389060013
:104130006310070437F7FFFF1307F7FFB3F7E70034
:104140008315E4002316F400032481018320C101B8
:1041500093860900130609008329C1000329010180
:104160001385040083244101130101026F00C0285C
:104170008395E5009306200013060000EF00C01AA7
:104180008317C4006FF01FFB130101FF232481007C
:10419000138405008395E50023261100EF00C01865
:1041A0009307F0FF6308F5028357C4003717000038
:1041B0008320C100B3E7E7009397070193D7074136
:1041C0002328A4042316F400032481001301010111
:1041D000678000008357C40037F7FFFF1307F7FF1E
:1041E000B3F7E7009397070193D707418320C100F6
:1041F0002316F400032481001301010167800000ED
:104200008395E5006F004000130101FF2324810026
:1042100023229100130405001385050023261100B5
:1042200023A401C8EFC0CFA49307F0FF630CF500EF
:104230008320C10003248100832441001301010174
:104240006780000083A781C8E38407FE8320C10044
:104250002320F40003248100832441001301010181
:104260006780000083A701C7638EA70A83254504E2
:10427000130101FE232A9100232E1100930405004F
:10428000638C05042328210123263101232C81007E
:104290001309000093090008B387250103A4070050
:1042A000630E040093050400032404001385040036
:1042B000EF00100CE31804FE83A544041309490021
:1042C000E31C39FD13850400EF00900A03248101EB
:1042D000032901018329C10083A5840363860500A6
:1042E00013850400EF00D00883A5C404638605008D
:1042F00013850400EF00D00783A74403638C0700F5
:104300008320C101138504008324410113010102AC
:10431000678007008320C10183244101130101024A
:104320006780000067800000130101FF138705000C
:104330002324810023229100930506001304050025
:1043400013860600130507002326110023A401C8C5
:10435000EFC0CF9E9307F0FF630CF5008320C100F0
:1043600003248100832441001301010167800000C0
:1043700083A781C8E38407FE8320C1002320F400C3
:1043800003248100832441001301010167800000A0
:10439000130101FF138705002324810023229100CC
:1043A0009305060013040500138606001305070095
:1043B0002326110023A401C8EFC04F9B9307F0FFF1
:1043C000630CF5008320C100032481008324410095
:1043D000130101016780000083A781C8E38407FE01
:1043E0008320C1002320F4000324810083244100A2
:1043F0001301010167800000130101FF138705000D
:104400002324810023229100930506001304050054
:1044100013860600130507002326110023A401C8F4
:10442000EFC04F9A9307F0FF630CF5008320C100A3
:1044300003248100832441001301010167800000EF
:1044400083A781C8E38407FE8320C1002320F400F2
:1044500003248100832441001301010167800000CF
:10446000130101FF23248100B72702803724028033
:1044700023202101938787B3130784B323261100D8
:10448000232291003389E7406382E70213592940D0
:10449000130484B39304000083270400938414005E
:1044A00013044400E7800700E3E824FF3724028078
:1044B000B7270280938787B3130784B33389E74014
:1044C000135929406380E702130484B39304000066
:1044D000832704009384140013044400E78007003A
:1044E000E3E824FF8320C1000324810083244100EA
:1044F000032901001301010167800000130101FF7E
:1045000023248100B727028037240280938787B352
:10451000130484B33304F4402322910023261100B2
:1045200093542440638004021304C4FF3304F40052
:10453000832704009384F4FF1304C4FFE78007007B
:10454000E39804FE8320C1000324810083244100FA
:1045500013010101678000001303F0001307050039
:10456000637EC3029377F7006390070A639205089E
:10457000937606FF1376F600B386E6002320B70095
:104580002322B7002324B7002326B700130707010F
:10459000E366D7FE6314060067800000B306C340DD
:1045A0009396260097020000B38656006780C600E7
:1045B0002307B700A306B7002306B700A305B7007B
:1045C0002305B700A304B7002304B700A303B70073
:1045D0002303B700A302B7002302B700A301B7006B
:1045E0002301B700A300B7002300B70067800000D5
:1045F00093F5F50F93968500B3E5D50093960501E5
:10460000B3E5D5006FF0DFF6939627009702000020
:10461000B386560093820000E78006FA938002007A
:10462000938707FF3307F7403306F600E378C3F6B6
:104630006FF0DFF3B3C7A50093F73700B308C500E9
:10464000639407069307300063F0C706937735003D
:1046500013070500639A070613F6C8FFB306E64082
:104660009307000263CED7089386050093070700DF
:104670006378C70203A80600938747009386460025
:1046800023AE07FFE3E8C7FE9307F6FFB387E740D3
:1046900093F7C7FF938747003307F700B385F5000B
:1046A000636817016780000013070500637815052C
:1046B00083C705001307170093851500A30FF7FEA6
:1046C000E398E8FE6780000083C605001307170023
:1046D00093773700A30FD7FE93851500E38E07F677
:1046E00083C605001307170093773700A30FD7FE83
:1046F00093851500E39A07FC6FF01FF667800000B2
:10470000130101FF232681001304000283A3050087
:1047100083A2450083AF850003AFC50083AE0501CA
:1047200003AE450103A3850103A8C50183A60502C5
:1047300013074702B307E640232E77FC232057FEDA
:104740002322F7FF2324E7FF2326D7FF2328C7FFD1
:10475000232A67FE232C07FF232ED7FE93854502CD
:10476000E346F4FA93860500930707006378C702CF
:1047700003A80600938747009386460023AE07FFF1
:10478000E3E8C7FE9307F6FFB387E74093F7C7FF59
:10479000938747003307F700B385F5006368170177
:1047A0000324C100130101016780000083C70500D5
:1047B0001307170093851500A30FF7FEE382E8FEA9
:1047C00083C705001307170093851500A30FF7FE95
:1047D000E39EE8FC6FF0DFFC9377350013070500DC
:1047E000639C0704B7867F7F9386F6F79305F0FFF7
:1047F0000326070013074700B377D600B387D70017
:10480000B3E7C700B3E7D700E384B7FE8346C7FF2B
:10481000B307A740638406048346D7FF638C060270
:104820000345E7FF3335A0003305F5001305E5FF29
:1048300067800000E38806FA834707001307170024
:1048400093763700E39807FE3307A7401305F7FF79
:10485000678000001385D7FF678000001385C7FFBE
:104860006780000083A7C1C8638C070403A74700C3
:104870001308F0016340E8081318270063060502D7
:10488000338307012324C30883A887181306100065
:104890003316E600B3E8C80023A417192324D31065
:1048A000930620006306D5021307170023A2E70032
:1048B000B387070123A4B700130500006780000039
:1048C0001388816423A601C9938781646FF01FFA5E
:1048D00083A6C7181307170023A2E700B3E6C60094
:1048E00023A6D718B387070123A4B7001305000038
:1048F000678000001305F0FF67800000130101FDD1
:10490000232C41012320210303A9C1C8232611021E
:104910006308090A232E3101232A5101232861014A
:104920002326710123248102232291022324810161
:10493000130B0500938B05009309F0FF930A1000F9
:10494000832449001384F4FF634E040493942400E9
:10495000B304990063900B088327490083A64400A1
:104960009387F7FF638C870A23A2040063860602FD
:104970008327891833978A00032C4900B377F700FF
:1049800063960706E78006000327490083A7C1C88E
:1049900063108709639E27071304F4FF9384C4FF01
:1049A000E31A34FB03248102832441028329C101D9
:1049B000832A4101032B0101832BC100032C8100B9
:1049C0008320C10203290102032A8101130101038B
:1049D0006780000083A74410E38077F91304F4FF95
:1049E0009384C4FFE31834FF6FF0DFFB8327C918FB
:1049F00083A544083377F7006316070213050B00FD
:104A0000E78006000327490083A7C1C8E30487F9AC
:104A1000E38A07F8138907006FF09FF223228900C9
:104A20006FF0DFF413850500E78006006FF0DFF517
:104A3000130101FE23263101B7290280232C8100B6
:104A4000232A91002328210123244101232E110030
:104A5000138A050013090500938909EEEF00103D44
:104A600003A78900B71700009387F7FE8324470048
:104A70003717000093F4C4FF3384F4003304444137
:104A80001354C4001304F4FF1314C400634EE40071
:104A90009305000013050900EF40D02883A7890083
:104AA000B38797006308F50213050900EF0050383B
:104AB0008320C101032481018324410103290101D1
:104AC0008329C100032A810013050000130101029C
:104AD00067800000B305804013050900EF40902473
:104AE0009307F0FF630AF504B73702809387470105
:104AF00003A7070083A68900B384844093E41400CD
:104B0000330787401305090023A2960023A0E7007E
:104B1000EF0010328320C10103248101832441016D
:104B2000032901018329C100032A81001305100014
:104B300013010102678000009305000013050900BE
:104B4000EF40501E03A789009306F000B307E5402D
:104B5000E3DCF6F483A641C793E717002322F700AE
:104B60003305D540B736028023AAA6006FF0DFF3E5
:104B700063820518130101FF232481002322910081
:104B8000138405009304050023261100EF00102A6A
:104B90000325C4FF130784FFB72502809377E5FF41
:104BA0003306F700938505EE8326460003A88500AB
:104BB00093F6C6FF6302C81A2322D60013751500A8
:104BC0003308D6006310050A032384FF0328480036
:104BD000372502803307674083288700130585EE59
:104BE000B3876700137818006382A8140323C700F3
:104BF00023A66800232413016306081A93E617000E
:104C00002322D7002320F6009306F01F63ECF6065C
:104C100093F687FF9386860003A54500B386D500EB
:104C200003A6060013D8570093071000B397070197
:104C3000B3E7A700138586FF2326A7002324C70018
:104C400023A2F50023A0E6002326E600032481002A
:104C50008320C10013850400832441001301010156
:104C60006F00101D03254800137515006306050825
:104C700093E61700232ED4FE2320F6009306F01FA0
:104C8000E3F8F6F893D69700130640006360D61257
:104C900093D6670013859603138686031315350094
:104CA0003385A50083260500130585FF6318D5000D
:104CB0006F00401583A686006308D50003A6460052
:104CC0001376C6FFE3E8C7FE03A5C6002326A700A8
:104CD0002324D700032481002324E5008320C1007E
:104CE000138504008324410023A6E600130101017B
:104CF0006F0010146780000037250280B387D7004B
:104D0000130585EE83268600638CA60C0328C60057
:104D100013E517003306F70023A606012324D80065
:104D20002322A7002320F6006FF01FEE631C081259
:104D3000832586000326C600B386F60093E7160097
:104D400023A6C5002324B6002322F7003307D7008B
:104D50002320D7006FF09FEF13751500B386D7009F
:104D600063100502032584FF3307A7408327C7008C
:104D700003268700B386A6002326F60023A4C700D7
:104D800013E6160083A781C72322C70023A4E500EA
:104D9000E3EEF6EA83A581C913850400EFF05FC94D
:104DA0006FF0DFEAB387D7006FF0DFF5130640013D
:104DB0006370D602130640056364D60693D6C70017
:104DC0001385F6061386E606131535006FF05FEDC2
:104DD0001385C6051386B605131535006FF05FEC15
:104DE00023AAE50023A8E50093E617002326A700E1
:104DF0002324A7002322D7003307F7002320F7003E
:104E00006FF0DFE403A84500135626409307100017
:104E1000B397C700B3E7070123A2F5006FF01FEBBC
:104E200013064015636CD60093D6F70013858607EA
:104E300013867607131535006FF09FE6130640556D
:104E4000636CD60093D627011385D6071386C60751
:104E5000131535006FF0DFE41305803F1306E007FC
:104E60006FF01FE493E617002322D7002320F600FB
:104E70006FF0DFDD130101FD232E31012326110226
:104E80002324810223229102232021039387B5004A
:104E900013076001930905006362F7089307000197
:104EA00063E4B720EF00807893078001930520002A
:104EB0009304000137290280130909EEB307F900B2
:104EC00003A44700138787FF6302E4348327440069
:104ED0008326C4000326840093F7C7FFB307F400BA
:104EE00003A747002326D60023A4C6001367170094
:104EF0001385090023A2E700EF00807313058400E7
:104F00008320C10203248102832441020329010278
:104F10008329C101130101036780000093F487FF17
:104F200063C4071863E2B418EF0040709307701F62
:104F300063F8973E93D794006380071813074000E7
:104F4000636EF73293D764009385970313888703C2
:104F50001396350037290280130909EE3306C9007C
:104F600003244600130686FF630886021305F0003B
:104F70006F0040018326C40063560728630ED600E5
:104F8000138406008327440093F7C7FF33879740B5
:104F9000E352E5FE93050800032409019308890004
:104FA000630E1425832744009306F00093F7C7FF90
:104FB0003387974063CCE636232A19012328190149
:104FC000635007341307F01F032549006368F72473
:104FD00013F787FF130787003307E90083260700CD
:104FE00013D6570093071000B397C7003365F50039
:104FF000930787FF2326F4002324D4002322A9004B
:105000002320870023A6860093D72540130610008F
:105010003316F600636AC50AB377A60063940702E5
:105020001316160093F5C5FFB377A60093854500C8
:10503000639A070013161600B377A6009385450000
:10504000E38A07FE1308F000139335003303690069
:10505000130503008327C500138E05006302F524A2
:1050600003A747001384070083A7C7001377C7FF70
:10507000B30697406342D824E3C206FE3307E40038
:1050800083264700032684001385090093E6160053
:105090002322D7002326F60023A4C700EF0040599F
:1050A000130584006FF0DFE59307C00023A0F9002B
:1050B000130500006FF0DFE41306002093050004E1
:1050C0001308F0036FF01FE903248900232861010E
:1050D0008327440013FBC7FF63689B0033079B4093
:1050E0009307F00063CAE70C23229101232A5101A0
:1050F00003A741C783AA81C9232C4101232671013B
:105100009307F0FF330A6401B38A54016306F73C46
:10511000B71700009387F700B38AFA00B7F7FFFFCD
:10512000B3FAFA0093850A0013850900EF40803F27
:105130009307F0FF930B0500630AF54423248101D4
:10514000636E4523138C817D83250C00B385BA00E3
:105150002320BC00138705006316AA2A9317450174
:105160006392072A832B8900B3075B0193E717003B
:1051700023A2FB0083A641C963F4B60023AAB1C8E9
:1051800083A601C963F4B60023A8B1C8032C81002B
:1051900013840B0093F7C7FF3387974063EA973870
:1051A0009307F00063D6E738032A8101832A41017F
:1051B000832BC100832C410093E714002322F400C9
:1051C000B304940023249900136717001385090082
:1051D00023A2E400EF00C0458320C1021305840030
:1051E00003248102032B01018324410203290102CC
:1051F0008329C101130101036780000003254900D1
:105200006FF09FE0032684006FF05FCD03A4C7001A
:1052100093852500E38287D86FF05FCB13D7970083
:105220009306400063F2E6149306400163E4E6321D
:105230001306C7059306B705131636003306C900D3
:1052400003270600130686FF6318E6006F00402957
:10525000032787006308E6008326470093F6C6FF0E
:10526000E3E8D7FE0326C7002326C4002324E40076
:1052700023248600232687006FF01FD913074001DF
:105280006378F710130740056364F72E93D7C400C3
:105290009385F7061388E706139635006FF09FCBCA
:1052A000130E1E0093773E001305850063800710E0
:1052B0008327C5006FF09FDA0326840093E514006E
:1052C0002322B4002326F60023A4C700B3049400CD
:1052D000232A99002328990093E7160023A6140196
:1052E00023A4140123A2F4003307E400138509006A
:1052F0002320D700EF00C033130584006FF05FC098
:10530000B307F40003A747001385090013671700CC
:1053100023A2E700EF00C031130584006FF05FBEE9
:1053200093D53400938784006FF0DFB893E61400C0
:105330002322D400B3049400232A9900232899003F
:105340009366170023A6140123A4140123A2D400FA
:10535000B307F4001385090023A0E700EF00402DF8
:10536000130584006FF0DFB913D7670013069703A6
:1053700093068703131636006FF05FEC630C240767
:1053800003248900032C8100832744006FF09FE0F1
:105390009385C7051388B705139635006FF09FBB3B
:1053A000832783009385F5FF639E672693F7350077
:1053B000130383FFE39607FE032749009347F6FF95
:1053C000B3F7E7002322F90013161600E3EEC7CE69
:1053D000E30C06CE3377F600631A070013161600A7
:1053E0003377F600130E4E00E30A07FE93050E0016
:1053F0006FF09FC5138C817D03270C003387EA0073
:105400002320EC0083A641C79307F0FF6386F618BC
:10541000B3874B41B387E7002320FC0093FC7B005C
:10542000638C0C0CB38B9B41B717000093878700EC
:10543000938B8B00B3859741B38A5B01B38555414C
:105440009395450113DA450193050A001385090078
:10545000EF40400D9307F0FF6300F51833057541E9
:10546000B30A450103270C002324790193E71A00AE
:10547000B305EA002320BC0023A2FB00E30C24CFE9
:105480009306F00063F0660B0327440093074BFF7D
:1054900093F787FF137717003367F7002322E400A1
:1054A000130650003307F4002322C7002324C7004B
:1054B00063E6F60083A74B006FF0DFCB9305840013
:1054C00013850900EFF0CFEA832B890083250C00B8
:1054D00083A74B006FF01FCA938A0A016FF09FC425
:1054E00093D6264093071000B397D7003365F50095
:1054F0002322A9006FF05FD7B3855B01B305B040ED
:105500009395450113DA450193050A0013850900B7
:10551000EF4040019307F0FFE312F5F4130A000097
:105520006FF05FF4032C81009307100023A2FB00AF
:1055300013850900EF00C00F13050000032A810145
:10554000832A4101032B0101832BC100832C4100DD
:105550006FF01F9B9306400563E4E60413D7C70072
:105560001306F7069306E706131636006FF01FCDF5
:10557000130740156364F70493D7F40093858707F6
:1055800013887707139635006FF0DF9C032489009A
:10559000832744006FF01FC023AA71C76FF01FE874
:1055A0009306401563E4E60413D7F7001306870754
:1055B00093067707131636006FF05FC81307405540
:1055C0006364F70493D724019385D7071388C7072B
:1055D000139635006FF01F98938C8CFFB38A9A0155
:1055E000B38A7A41130A00006FF0DFE79306405553
:1055F00063E4E60213D727011306D7079306C7070C
:10560000131636006FF09FC31306803F9305F00713
:105610001308E0076FF01F941306803F9306E0071E
:105620006FF0DFC1832749006FF01FDA6780000049
:1056300067800000130101ED23261112232291122D
:10564000232A511123267111938A05009304060021
:105650002324D100930B0500EF30D06B8327050086
:10566000138507002322F102EFF00F972320A102F8
:1056700063880B0083A74B03639407006F1040738C
:105680008397CA00139727016346070203A74A06B8
:1056900037260000B7E6FFFFB3E7C7009386F6FFA3
:1056A0009397070193D707413377D7002396FA00E2
:1056B00023A2EA0613F787006302072E03A70A0155
:1056C000630E072C93F7A7011307A000638AE72E48
:1056D000B71702802328611123248111130B010BBA
:1056E0009387474A371C028023248112232C4111BF
:1056F000232EB10F23202113232E311123229111A8
:105700002320A111232E6107232201082320010851
:10571000232A0100232C0100232E010013040B0077
:105720002324010223280102232201002326F10061
:10573000130A0001130C8C6123207101938D040066
:1057400083C70D00638C071E93840D00130750025E
:105750006386E72A83C7140093841400E39A07FE44
:105760003389B441638CB41D0327410883270108A2
:105770002320B40133072701938717002322240134
:105780002322E1082320F10813077000130484008A
:10579000634EF7260327410083C704003307270120
:1057A0002322E100638C071893841400A30F0104E3
:1057B0009309F0FF930B0000130900009306800586
:1057C00003CD0400938D140093070DFE63E6F604E9
:1057D0000327C10093972700B387E70083A707003B
:1057E00067800700930B000093070DFD13069000E0
:1057F00003CD0D0013972B00B30B7701939B1B0078
:10580000B38B770193070DFD938D1D00E372F6FEB8
:1058100093070DFEE3FEF6FA63020D122304A109BD
:10582000A30F01041307100093041000930C8108C8
:10583000130F09009309000023280100930F0000B3
:1058400093724F080329410863960200B387EB4027
:10585000E342F0448347F105638A07028327010886
:105860009306F1052320D4001309190093061000B4
:10587000938717002322D400232221092320F10833
:10588000930670001304840063C0F61A638A0F0243
:1058900083270108930601062320D4001309290059
:1058A00093062000938717002322D4002322210986
:1058B0002320F1089306700013048400E3CEF64E13
:1058C00093070008E38AF208B3899940E34E301940
:1058D00093770F10639407748327010833099900A5
:1058E0002320940193871700232294002322210967
:1058F0002320F1089306700063CCF6201304840083
:10590000137F4F0063060F00B384EB40E342904ED9
:1059100013830B0063D4EB001303070083274100BC
:10592000B38767002322F100E31A092283C70D0021
:105930002320010813040B00E39807E083274108A4
:10594000832B0100638407006F10407583D7CA0062
:10595000032481120329011293F707048329C1113B
:10596000032A8111032B0111032C8110832C411078
:10597000032D0110832DC10F638407006F10901D4C
:105980008320C1120325410083244112832A41113F
:10599000832BC110130101136780000093850A0057
:1059A00013850B00EF30006C630405006F10901A34
:1059B0008397CA001307A00093F7A701E39AE7D0E3
:1059C0008397EA00E3C607D0832681008320C112B3
:1059D0001386040093850A0083244112832A41110F
:1059E00013850B00832BC110130101136F101038A6
:1059F0001369090193840D006FF09FDC3389B44172
:105A0000E394B4D783C704006FF0DFD90325010006
:105A10001306C10793850A00EF105054E31805F2EE
:105A200013040B006FF01FD7032501001306C107F5
:105A300093850A00232EE102232CE103232A51023D
:105A40002326F103EF109051E31205F003294108DA
:105A50000327C103032F810383224103832FC10244
:105A600013040B006FF09FE283270108B716028032
:105A70009386064A2320D4001309190093061000C8
:105A8000938717002322D400232221092320F10821
:105A9000930670001304840063D4F6006F10801026
:105AA000630406006F1080458326410193771F0031
:105AB000B3E7D700E38607E4832741028326010288
:105AC0002320F40083270108B38526012322D40074
:105AD000938717002322B1082320F1089306700052
